{
  "contractName": "Property",
  "abi": [
    {
      "constant": true,
      "inputs": [],
      "name": "candidatesCount",
      "outputs": [
        {
          "name": "",
          "type": "uint256"
        }
      ],
      "payable": false,
      "stateMutability": "view",
      "type": "function",
      "signature": "0x2d35a8a2"
    },
    {
      "constant": true,
      "inputs": [
        {
          "name": "",
          "type": "uint256"
        }
      ],
      "name": "candidates",
      "outputs": [
        {
          "name": "id",
          "type": "uint256"
        },
        {
          "name": "name",
          "type": "string"
        },
        {
          "name": "voteCount",
          "type": "uint256"
        },
        {
          "name": "licenseNumber",
          "type": "uint256"
        },
        {
          "name": "registrationNumber",
          "type": "uint256"
        },
        {
          "name": "size",
          "type": "uint256"
        },
        {
          "name": "location",
          "type": "string"
        },
        {
          "name": "rooms",
          "type": "uint256"
        },
        {
          "name": "price",
          "type": "uint256"
        },
        {
          "name": "ownerName",
          "type": "string"
        },
        {
          "name": "ownerAddress",
          "type": "address"
        }
      ],
      "payable": false,
      "stateMutability": "view",
      "type": "function",
      "signature": "0x3477ee2e"
    },
    {
      "constant": true,
      "inputs": [
        {
          "name": "",
          "type": "address"
        }
      ],
      "name": "voters",
      "outputs": [
        {
          "name": "",
          "type": "bool"
        }
      ],
      "payable": false,
      "stateMutability": "view",
      "type": "function",
      "signature": "0xa3ec138d"
    },
    {
      "inputs": [],
      "payable": false,
      "stateMutability": "nonpayable",
      "type": "constructor",
      "signature": "constructor"
    },
    {
      "anonymous": false,
      "inputs": [
        {
          "indexed": true,
          "name": "_candidateId",
          "type": "uint256"
        }
      ],
      "name": "votedEvent",
      "type": "event",
      "signature": "0xfff3c900d938d21d0990d786e819f29b8d05c1ef587b462b939609625b684b16"
    },
    {
      "constant": false,
      "inputs": [
        {
          "name": "_name",
          "type": "string"
        },
        {
          "name": "_licenseNumber",
          "type": "uint256"
        },
        {
          "name": "_registrationNumber",
          "type": "uint256"
        },
        {
          "name": "_size",
          "type": "uint256"
        },
        {
          "name": "_location",
          "type": "string"
        },
        {
          "name": "_rooms",
          "type": "uint256"
        },
        {
          "name": "_price",
          "type": "uint256"
        },
        {
          "name": "_ownerName",
          "type": "string"
        }
      ],
      "name": "addCandidate",
      "outputs": [],
      "payable": false,
      "stateMutability": "nonpayable",
      "type": "function",
      "signature": "0xf932a455"
    },
    {
      "constant": false,
      "inputs": [
        {
          "name": "_candidateId",
          "type": "uint256"
        }
      ],
      "name": "vote",
      "outputs": [],
      "payable": false,
      "stateMutability": "nonpayable",
      "type": "function",
      "signature": "0x0121b93f"
    }
  ],
  "bytecode": "0x60806040523480156200001157600080fd5b50620000d96040805190810160405280600781526020017f486f7573652041000000000000000000000000000000000000000000000000008152506104d261045760786040805190810160405280600381526020017f4e45440000000000000000000000000000000000000000000000000000000000815250600460fa6040805190810160405280600381526020017f416c69000000000000000000000000000000000000000000000000000000000081525062000336640100000000026401000000009004565b620001a16040805190810160405280600781526020017f486f7573652042000000000000000000000000000000000000000000000000008152506109ed6108ae60f06040805190810160405280600581526020017f4a6f68617200000000000000000000000000000000000000000000000000000081525060066102ee6040805190810160405280600681526020017f46757271616e000000000000000000000000000000000000000000000000000081525062000336640100000000026401000000009004565b620002686040805190810160405280600781526020017f486f7573652043000000000000000000000000000000000000000000000000008152506104d261045760786040805190810160405280600381526020017f4e45440000000000000000000000000000000000000000000000000000000000815250600460fa6040805190810160405280600381526020017f416c69000000000000000000000000000000000000000000000000000000000081525062000336640100000000026401000000009004565b620003306040805190810160405280600781526020017f486f7573652044000000000000000000000000000000000000000000000000008152506109ed6108ae60f06040805190810160405280600581526020017f4a6f68617200000000000000000000000000000000000000000000000000000081525060066102ee6040805190810160405280600681526020017f46757271616e000000000000000000000000000000000000000000000000000081525062000336640100000000026401000000009004565b62000572565b60026000815480929190600101919050555060003390506101606040519081016040528060025481526020018a8152602001600081526020018981526020018881526020018781526020018681526020018581526020018481526020018381526020018273ffffffffffffffffffffffffffffffffffffffff16815250600160006002548152602001908152602001600020600082015181600001556020820151816001019080519060200190620003f0929190620004c3565b5060408201518160020155606082015181600301556080820151816004015560a0820151816005015560c082015181600601908051906020019062000437929190620004c3565b5060e0820151816007015561010082015181600801556101208201518160090190805190602001906200046c929190620004c3565b5061014082015181600a0160006101000a81548173ffffffffffffffffffffffffffffffffffffffff021916908373ffffffffffffffffffffffffffffffffffffffff160217905550905050505050505050505050565b828054600181600116156101000203166002900490600052602060002090601f016020900481019282601f106200050657805160ff191683800117855562000537565b8280016001018555821562000537579182015b828111156200053657825182559160200191906001019062000519565b5b5090506200054691906200054a565b5090565b6200056f91905b808211156200056b57600081600090555060010162000551565b5090565b90565b610b3c80620005826000396000f3fe60806040526004361061006d576000357c0100000000000000000000000000000000000000000000000000000000900463ffffffff1680630121b93f146100725780632d35a8a2146100ad5780633477ee2e146100d8578063a3ec138d146102c8578063f932a45514610331575b600080fd5b34801561007e57600080fd5b506100ab6004803603602081101561009557600080fd5b810190808035906020019092919050505061055a565b005b3480156100b957600080fd5b506100c261067c565b6040518082815260200191505060405180910390f35b3480156100e457600080fd5b50610111600480360360208110156100fb57600080fd5b8101908080359060200190929190505050610682565b604051808c8152602001806020018b81526020018a815260200189815260200188815260200180602001878152602001868152602001806020018573ffffffffffffffffffffffffffffffffffffffff1673ffffffffffffffffffffffffffffffffffffffff16815260200184810384528e818151815260200191508051906020019080838360005b838110156101b557808201518184015260208101905061019a565b50505050905090810190601f1680156101e25780820380516001836020036101000a031916815260200191505b50848103835289818151815260200191508051906020019080838360005b8381101561021b578082015181840152602081019050610200565b50505050905090810190601f1680156102485780820380516001836020036101000a031916815260200191505b50848103825286818151815260200191508051906020019080838360005b83811015610281578082015181840152602081019050610266565b50505050905090810190601f1680156102ae5780820380516001836020036101000a031916815260200191505b509e50505050505050505050505050505060405180910390f35b3480156102d457600080fd5b50610317600480360360208110156102eb57600080fd5b81019080803573ffffffffffffffffffffffffffffffffffffffff1690602001909291905050506108c4565b604051808215151515815260200191505060405180910390f35b34801561033d57600080fd5b50610558600480360361010081101561035557600080fd5b810190808035906020019064010000000081111561037257600080fd5b82018360208201111561038457600080fd5b803590602001918460018302840111640100000000831117156103a657600080fd5b91908080601f016020809104026020016040519081016040528093929190818152602001838380828437600081840152601f19601f8201169050808301925050505050505091929192908035906020019092919080359060200190929190803590602001909291908035906020019064010000000081111561042757600080fd5b82018360208201111561043957600080fd5b8035906020019184600183028401116401000000008311171561045b57600080fd5b91908080601f016020809104026020016040519081016040528093929190818152602001838380828437600081840152601f19601f8201169050808301925050505050505091929192908035906020019092919080359060200190929190803590602001906401000000008111156104d257600080fd5b8201836020820111156104e457600080fd5b8035906020019184600183028401116401000000008311171561050657600080fd5b91908080601f016020809104026020016040519081016040528093929190818152602001838380828437600081840152601f19601f8201169050808301925050505050505091929192905050506108e4565b005b6000803373ffffffffffffffffffffffffffffffffffffffff1673ffffffffffffffffffffffffffffffffffffffff16815260200190815260200160002060009054906101000a900460ff161515156105b257600080fd5b6000811180156105c457506002548111155b15156105cf57600080fd5b60016000803373ffffffffffffffffffffffffffffffffffffffff1673ffffffffffffffffffffffffffffffffffffffff16815260200190815260200160002060006101000a81548160ff0219169083151502179055506001600082815260200190815260200160002060020160008154809291906001019190505550807ffff3c900d938d21d0990d786e819f29b8d05c1ef587b462b939609625b684b1660405160405180910390a250565b60025481565b6001602052806000526040600020600091509050806000015490806001018054600181600116156101000203166002900480601f0160208091040260200160405190810160405280929190818152602001828054600181600116156101000203166002900480156107345780601f1061070957610100808354040283529160200191610734565b820191906000526020600020905b81548152906001019060200180831161071757829003601f168201915b505050505090806002015490806003015490806004015490806005015490806006018054600181600116156101000203166002900480601f0160208091040260200160405190810160405280929190818152602001828054600181600116156101000203166002900480156107ea5780601f106107bf576101008083540402835291602001916107ea565b820191906000526020600020905b8154815290600101906020018083116107cd57829003601f168201915b505050505090806007015490806008015490806009018054600181600116156101000203166002900480601f0160208091040260200160405190810160405280929190818152602001828054600181600116156101000203166002900480156108945780601f1061086957610100808354040283529160200191610894565b820191906000526020600020905b81548152906001019060200180831161087757829003601f168201915b50505050509080600a0160009054906101000a900473ffffffffffffffffffffffffffffffffffffffff1690508b565b60006020528060005260406000206000915054906101000a900460ff1681565b60026000815480929190600101919050555060003390506101606040519081016040528060025481526020018a8152602001600081526020018981526020018881526020018781526020018681526020018581526020018481526020018381526020018273ffffffffffffffffffffffffffffffffffffffff1681525060016000600254815260200190815260200160002060008201518160000155602082015181600101908051906020019061099c929190610a6b565b5060408201518160020155606082015181600301556080820151816004015560a0820151816005015560c08201518160060190805190602001906109e1929190610a6b565b5060e082015181600701556101008201518160080155610120820151816009019080519060200190610a14929190610a6b565b5061014082015181600a0160006101000a81548173ffffffffffffffffffffffffffffffffffffffff021916908373ffffffffffffffffffffffffffffffffffffffff160217905550905050505050505050505050565b828054600181600116156101000203166002900490600052602060002090601f016020900481019282601f10610aac57805160ff1916838001178555610ada565b82800160010185558215610ada579182015b82811115610ad9578251825591602001919060010190610abe565b5b509050610ae79190610aeb565b5090565b610b0d91905b80821115610b09576000816000905550600101610af1565b5090565b9056fea165627a7a72305820f59ddf148cb7fb8e4d1c9893f901f4b91eed66193b144d9f623ea4f04772f81a0029",
  "source": "pragma solidity ^0.5.0;\n\ncontract Property {\n    // Model a Candidate\n    struct Candidate {\n        uint id;\n        string name;\n        uint voteCount;\n        uint licenseNumber;\n        uint registrationNumber;\n        uint size;\n        string location;\n        uint rooms;\n        uint price;\n        string ownerName;\n        address ownerAddress;\n    }\n\n    // Store accounts that have voted\n    mapping(address => bool) public voters;\n    // Store Candidates\n    // Fetch Candidate\n    mapping(uint => Candidate) public candidates;\n    // Store Candidates Count\n    uint public candidatesCount;\n\n    // voted event\n    event votedEvent (\n        uint indexed _candidateId\n    );\n\n    constructor () public {\n        addCandidate(\"House A\", 1234, 1111, 120, \"NED\", 4, 250, \"Ali\");\n        addCandidate(\"House B\", 2541, 2222, 240, \"Johar\", 6, 750, \"Furqan\");\n        addCandidate(\"House C\", 1234, 1111, 120, \"NED\", 4, 250, \"Ali\");\n        addCandidate(\"House D\", 2541, 2222, 240, \"Johar\", 6, 750, \"Furqan\");\n    }\n\n    function addCandidate (string memory _name, uint _licenseNumber, uint _registrationNumber, uint _size, string memory _location, uint _rooms, uint _price, string memory _ownerName) public {\n        candidatesCount ++;\n        address senderAddress = msg.sender;\n        candidates[candidatesCount] = Candidate(candidatesCount, _name, 0, _licenseNumber, _registrationNumber, _size, _location, _rooms, _price, _ownerName, senderAddress);\n    }\n\n    function vote (uint _candidateId) public {\n        // require that they haven't voted before\n        require(!voters[msg.sender]);\n\n        // require a valid candidate\n        require(_candidateId > 0 && _candidateId <= candidatesCount);\n\n        // record that voter has voted\n        voters[msg.sender] = true;\n\n        // update candidate vote Count\n        candidates[_candidateId].voteCount ++;\n\n        // trigger voted event\n        emit votedEvent(_candidateId);\n    }\n}\n",
  "sourcePath": "C:/Users/HP/Desktop/FYP/RealEstate/Ethereum Blockchain/realestate/contracts/Property.sol",
  "compiler": {
    "name": "solc",
    "version": "0.5.0+commit.1d4f565a.Emscripten.clang"
  },
  "schemaVersion": "3.0.2",
  "updatedAt": "2019-03-05T13:00:37.850Z",
  "devdoc": {
    "methods": {}
  },
  "userdoc": {
    "methods": {}
  }
}