{
  "contractName": "Property",
  "abi": [
    {
      "constant": true,
      "inputs": [],
      "name": "candidatesCount",
      "outputs": [
        {
          "name": "",
          "type": "uint256"
        }
      ],
      "payable": false,
      "stateMutability": "view",
      "type": "function",
      "signature": "0x2d35a8a2"
    },
    {
      "constant": true,
      "inputs": [
        {
          "name": "",
          "type": "uint256"
        }
      ],
      "name": "candidates",
      "outputs": [
        {
          "name": "id",
          "type": "uint256"
        },
        {
          "name": "name",
          "type": "string"
        },
        {
          "name": "voteCount",
          "type": "uint256"
        },
        {
          "name": "licenseNumber",
          "type": "uint256"
        },
        {
          "name": "registrationNumber",
          "type": "uint256"
        },
        {
          "name": "size",
          "type": "uint256"
        },
        {
          "name": "location",
          "type": "string"
        },
        {
          "name": "rooms",
          "type": "uint256"
        },
        {
          "name": "price",
          "type": "uint256"
        },
        {
          "name": "ownerName",
          "type": "string"
        },
        {
          "name": "ownerAddress",
          "type": "address"
        },
        {
          "name": "storeHash",
          "type": "bytes32"
        }
      ],
      "payable": false,
      "stateMutability": "view",
      "type": "function",
      "signature": "0x3477ee2e"
    },
    {
      "constant": true,
      "inputs": [
        {
          "name": "",
          "type": "address"
        }
      ],
      "name": "voters",
      "outputs": [
        {
          "name": "",
          "type": "bool"
        }
      ],
      "payable": false,
      "stateMutability": "view",
      "type": "function",
      "signature": "0xa3ec138d"
    },
    {
      "inputs": [],
      "payable": false,
      "stateMutability": "nonpayable",
      "type": "constructor",
      "signature": "constructor"
    },
    {
      "anonymous": false,
      "inputs": [
        {
          "indexed": true,
          "name": "_candidateId",
          "type": "uint256"
        }
      ],
      "name": "votedEvent",
      "type": "event",
      "signature": "0xfff3c900d938d21d0990d786e819f29b8d05c1ef587b462b939609625b684b16"
    },
    {
      "anonymous": false,
      "inputs": [
        {
          "indexed": false,
          "name": "hashEvent",
          "type": "bytes32"
        },
        {
          "indexed": false,
          "name": "hashEvent2",
          "type": "bytes32"
        }
      ],
      "name": "verifiedEvent",
      "type": "event",
      "signature": "0x885b97ff4bea6a536188c132dbad34908f9e70d969ec9c21f6ecf0ed98e21dff"
    },
    {
      "anonymous": false,
      "inputs": [
        {
          "indexed": false,
          "name": "hashEvent",
          "type": "bytes32"
        },
        {
          "indexed": false,
          "name": "hashEvent2",
          "type": "bytes32"
        }
      ],
      "name": "notVerifiedEvent",
      "type": "event",
      "signature": "0x6a34cb162de4293b89a30f1551065addf2a5d3e3ada9fcd639b815d506653a39"
    },
    {
      "constant": false,
      "inputs": [
        {
          "name": "_name",
          "type": "string"
        },
        {
          "name": "_licenseNumber",
          "type": "uint256"
        },
        {
          "name": "_registrationNumber",
          "type": "uint256"
        },
        {
          "name": "_size",
          "type": "uint256"
        },
        {
          "name": "_location",
          "type": "string"
        },
        {
          "name": "_rooms",
          "type": "uint256"
        },
        {
          "name": "_price",
          "type": "uint256"
        },
        {
          "name": "_ownerName",
          "type": "string"
        }
      ],
      "name": "addCandidate",
      "outputs": [],
      "payable": false,
      "stateMutability": "nonpayable",
      "type": "function",
      "signature": "0xf932a455"
    },
    {
      "constant": false,
      "inputs": [
        {
          "name": "_id",
          "type": "uint256"
        },
        {
          "name": "_ownerName",
          "type": "string"
        },
        {
          "name": "_ownerAddress",
          "type": "address"
        }
      ],
      "name": "editCandidate",
      "outputs": [],
      "payable": false,
      "stateMutability": "nonpayable",
      "type": "function",
      "signature": "0x8b069586"
    },
    {
      "constant": false,
      "inputs": [
        {
          "name": "_candidateId",
          "type": "uint256"
        }
      ],
      "name": "vote",
      "outputs": [],
      "payable": false,
      "stateMutability": "nonpayable",
      "type": "function",
      "signature": "0x0121b93f"
    },
    {
      "constant": false,
      "inputs": [
        {
          "name": "id",
          "type": "uint256"
        },
        {
          "name": "docHash",
          "type": "string"
        }
      ],
      "name": "storeDocument",
      "outputs": [],
      "payable": false,
      "stateMutability": "nonpayable",
      "type": "function",
      "signature": "0xbc367f95"
    },
    {
      "constant": true,
      "inputs": [
        {
          "name": "_bytes32",
          "type": "bytes32"
        }
      ],
      "name": "bytes32ToStr",
      "outputs": [
        {
          "name": "",
          "type": "string"
        }
      ],
      "payable": false,
      "stateMutability": "view",
      "type": "function",
      "signature": "0xef0b2368"
    },
    {
      "constant": false,
      "inputs": [
        {
          "name": "id",
          "type": "uint256"
        },
        {
          "name": "hashToVerify",
          "type": "string"
        }
      ],
      "name": "verifyDocument",
      "outputs": [
        {
          "name": "",
          "type": "bool"
        }
      ],
      "payable": false,
      "stateMutability": "nonpayable",
      "type": "function",
      "signature": "0xd40a2c5d"
    },
    {
      "constant": true,
      "inputs": [
        {
          "name": "sampleToHash",
          "type": "string"
        }
      ],
      "name": "hashSeriesNumber",
      "outputs": [
        {
          "name": "",
          "type": "bytes32"
        }
      ],
      "payable": false,
      "stateMutability": "pure",
      "type": "function",
      "signature": "0x808a2af2"
    }
  ],
  "bytecode": "0x60806040523480156200001157600080fd5b50620000d96040805190810160405280600781526020017f486f7573652041000000000000000000000000000000000000000000000000008152506104d261045760786040805190810160405280600381526020017f4e45440000000000000000000000000000000000000000000000000000000000815250600460fa6040805190810160405280600381526020017f416c69000000000000000000000000000000000000000000000000000000000081525062000336640100000000026401000000009004565b620001a16040805190810160405280600781526020017f486f7573652042000000000000000000000000000000000000000000000000008152506109ed6108ae60f06040805190810160405280600581526020017f4a6f68617200000000000000000000000000000000000000000000000000000081525060066102ee6040805190810160405280600681526020017f46757271616e000000000000000000000000000000000000000000000000000081525062000336640100000000026401000000009004565b620002686040805190810160405280600781526020017f486f7573652043000000000000000000000000000000000000000000000000008152506104d261045760786040805190810160405280600381526020017f4e45440000000000000000000000000000000000000000000000000000000000815250600460fa6040805190810160405280600381526020017f416c69000000000000000000000000000000000000000000000000000000000081525062000336640100000000026401000000009004565b620003306040805190810160405280600781526020017f486f7573652044000000000000000000000000000000000000000000000000008152506109ed6108ae60f06040805190810160405280600581526020017f4a6f68617200000000000000000000000000000000000000000000000000000081525060066102ee6040805190810160405280600681526020017f46757271616e000000000000000000000000000000000000000000000000000081525062000336640100000000026401000000009004565b62000720565b600260008154809291906001019190505550600033905060608986846040516020018084805190602001908083835b6020831015156200038c578051825260208201915060208101905060208303925062000365565b6001836020036101000a03801982511681845116808217855250505050505090500183805190602001908083835b602083101515620003e15780518252602082019150602081019050602083039250620003ba565b6001836020036101000a03801982511681845116808217855250505050505090500182805190602001908083835b6020831015156200043657805182526020820191506020810190506020830392506200040f565b6001836020036101000a038019825116818451168082178552505050505050905001935050505060405160208183030381529060405290506000816040516020018082805190602001908083835b602083101515620004ab578051825260208201915060208101905060208303925062000484565b6001836020036101000a0380198251168184511680821785525050505050509050019150506040516020818303038152906040528051906020012090506101806040519081016040528060025481526020018c8152602001600081526020018b81526020018a81526020018981526020018881526020018781526020018681526020018581526020018473ffffffffffffffffffffffffffffffffffffffff168152602001828152506001600060025481526020019081526020016000206000820151816000015560208201518160010190805190602001906200059192919062000671565b5060408201518160020155606082015181600301556080820151816004015560a0820151816005015560c0820151816006019080519060200190620005d892919062000671565b5060e0820151816007015561010082015181600801556101208201518160090190805190602001906200060d92919062000671565b5061014082015181600a0160006101000a81548173ffffffffffffffffffffffffffffffffffffffff021916908373ffffffffffffffffffffffffffffffffffffffff16021790555061016082015181600b01559050505050505050505050505050565b828054600181600116156101000203166002900490600052602060002090601f016020900481019282601f10620006b457805160ff1916838001178555620006e5565b82800160010185558215620006e5579182015b82811115620006e4578251825591602001919060010190620006c7565b5b509050620006f49190620006f8565b5090565b6200071d91905b8082111562000719576000816000905550600101620006ff565b5090565b90565b61170580620007306000396000f3fe6080604052600436106100a4576000357c0100000000000000000000000000000000000000000000000000000000900463ffffffff1680630121b93f146100a95780632d35a8a2146100e45780633477ee2e1461010f578063808a2af2146103065780638b069586146103e2578063a3ec138d146104d4578063bc367f951461053d578063d40a2c5d1461060f578063ef0b2368146106f9578063f932a455146107ad575b600080fd5b3480156100b557600080fd5b506100e2600480360360208110156100cc57600080fd5b81019080803590602001909291905050506109d6565b005b3480156100f057600080fd5b506100f9610af8565b6040518082815260200191505060405180910390f35b34801561011b57600080fd5b506101486004803603602081101561013257600080fd5b8101908080359060200190929190505050610afe565b604051808d8152602001806020018c81526020018b81526020018a815260200189815260200180602001888152602001878152602001806020018673ffffffffffffffffffffffffffffffffffffffff1673ffffffffffffffffffffffffffffffffffffffff16815260200185815260200184810384528f818151815260200191508051906020019080838360005b838110156101f25780820151818401526020810190506101d7565b50505050905090810190601f16801561021f5780820380516001836020036101000a031916815260200191505b5084810383528a818151815260200191508051906020019080838360005b8381101561025857808201518184015260208101905061023d565b50505050905090810190601f1680156102855780820380516001836020036101000a031916815260200191505b50848103825287818151815260200191508051906020019080838360005b838110156102be5780820151818401526020810190506102a3565b50505050905090810190601f1680156102eb5780820380516001836020036101000a031916815260200191505b509f5050505050505050505050505050505060405180910390f35b34801561031257600080fd5b506103cc6004803603602081101561032957600080fd5b810190808035906020019064010000000081111561034657600080fd5b82018360208201111561035857600080fd5b8035906020019184600183028401116401000000008311171561037a57600080fd5b91908080601f016020809104026020016040519081016040528093929190818152602001838380828437600081840152601f19601f820116905080830192505050505050509192919290505050610d46565b6040518082815260200191505060405180910390f35b3480156103ee57600080fd5b506104d26004803603606081101561040557600080fd5b81019080803590602001909291908035906020019064010000000081111561042c57600080fd5b82018360208201111561043e57600080fd5b8035906020019184600183028401116401000000008311171561046057600080fd5b91908080601f016020809104026020016040519081016040528093929190818152602001838380828437600081840152601f19601f820116905080830192505050505050509192919290803573ffffffffffffffffffffffffffffffffffffffff169060200190929190505050610dc3565b005b3480156104e057600080fd5b50610523600480360360208110156104f757600080fd5b81019080803573ffffffffffffffffffffffffffffffffffffffff16906020019092919050505061102e565b604051808215151515815260200191505060405180910390f35b34801561054957600080fd5b5061060d6004803603604081101561056057600080fd5b81019080803590602001909291908035906020019064010000000081111561058757600080fd5b82018360208201111561059957600080fd5b803590602001918460018302840111640100000000831117156105bb57600080fd5b91908080601f016020809104026020016040519081016040528093929190818152602001838380828437600081840152601f19601f82011690508083019250505050505050919291929050505061104e565b005b34801561061b57600080fd5b506106df6004803603604081101561063257600080fd5b81019080803590602001909291908035906020019064010000000081111561065957600080fd5b82018360208201111561066b57600080fd5b8035906020019184600183028401116401000000008311171561068d57600080fd5b91908080601f016020809104026020016040519081016040528093929190818152602001838380828437600081840152601f19601f82011690508083019250505050505050919291929050505061107a565b604051808215151515815260200191505060405180910390f35b34801561070557600080fd5b506107326004803603602081101561071c57600080fd5b81019080803590602001909291905050506111bb565b6040518080602001828103825283818151815260200191508051906020019080838360005b83811015610772578082015181840152602081019050610757565b50505050905090810190601f16801561079f5780820380516001836020036101000a031916815260200191505b509250505060405180910390f35b3480156107b957600080fd5b506109d460048036036101008110156107d157600080fd5b81019080803590602001906401000000008111156107ee57600080fd5b82018360208201111561080057600080fd5b8035906020019184600183028401116401000000008311171561082257600080fd5b91908080601f016020809104026020016040519081016040528093929190818152602001838380828437600081840152601f19601f820116905080830192505050505050509192919290803590602001909291908035906020019092919080359060200190929190803590602001906401000000008111156108a357600080fd5b8201836020820111156108b557600080fd5b803590602001918460018302840111640100000000831117156108d757600080fd5b91908080601f016020809104026020016040519081016040528093929190818152602001838380828437600081840152601f19601f82011690508083019250505050505050919291929080359060200190929190803590602001909291908035906020019064010000000081111561094e57600080fd5b82018360208201111561096057600080fd5b8035906020019184600183028401116401000000008311171561098257600080fd5b91908080601f016020809104026020016040519081016040528093929190818152602001838380828437600081840152601f19601f820116905080830192505050505050509192919290505050611287565b005b6000803373ffffffffffffffffffffffffffffffffffffffff1673ffffffffffffffffffffffffffffffffffffffff16815260200190815260200160002060009054906101000a900460ff16151515610a2e57600080fd5b600081118015610a4057506002548111155b1515610a4b57600080fd5b60016000803373ffffffffffffffffffffffffffffffffffffffff1673ffffffffffffffffffffffffffffffffffffffff16815260200190815260200160002060006101000a81548160ff0219169083151502179055506001600082815260200190815260200160002060020160008154809291906001019190505550807ffff3c900d938d21d0990d786e819f29b8d05c1ef587b462b939609625b684b1660405160405180910390a250565b60025481565b6001602052806000526040600020600091509050806000015490806001018054600181600116156101000203166002900480601f016020809104026020016040519081016040528092919081815260200182805460018160011615610100020316600290048015610bb05780601f10610b8557610100808354040283529160200191610bb0565b820191906000526020600020905b815481529060010190602001808311610b9357829003601f168201915b505050505090806002015490806003015490806004015490806005015490806006018054600181600116156101000203166002900480601f016020809104026020016040519081016040528092919081815260200182805460018160011615610100020316600290048015610c665780601f10610c3b57610100808354040283529160200191610c66565b820191906000526020600020905b815481529060010190602001808311610c4957829003601f168201915b505050505090806007015490806008015490806009018054600181600116156101000203166002900480601f016020809104026020016040519081016040528092919081815260200182805460018160011615610100020316600290048015610d105780601f10610ce557610100808354040283529160200191610d10565b820191906000526020600020905b815481529060010190602001808311610cf357829003601f168201915b50505050509080600a0160009054906101000a900473ffffffffffffffffffffffffffffffffffffffff169080600b015490508c565b6000816040516020018082805190602001908083835b602083101515610d815780518252602082019150602081019050602083039250610d5c565b6001836020036101000a038019825116818451168082178552505050505050905001915050604051602081830303815290604052805190602001209050919050565b81600160008581526020019081526020016000206009019080519060200190610ded9291906115b4565b508060016000858152602001908152602001600020600a0160006101000a81548173ffffffffffffffffffffffffffffffffffffffff021916908373ffffffffffffffffffffffffffffffffffffffff16021790555060606001600085815260200190815260200160002060010160016000868152602001908152602001600020600601846040516020018084805460018160011615610100020316600290048015610ed05780601f10610eae576101008083540402835291820191610ed0565b820191906000526020600020905b815481529060010190602001808311610ebc575b505083805460018160011615610100020316600290048015610f295780601f10610f07576101008083540402835291820191610f29565b820191906000526020600020905b815481529060010190602001808311610f15575b505082805190602001908083835b602083101515610f5c5780518252602082019150602081019050602083039250610f37565b6001836020036101000a038019825116818451168082178552505050505050905001935050505060405160208183030381529060405290506000816040516020018082805190602001908083835b602083101515610fcf5780518252602082019150602081019050602083039250610faa565b6001836020036101000a0380198251168184511680821785525050505050509050019150506040516020818303038152906040528051906020012090508060016000878152602001908152602001600020600b01819055505050505050565b60006020528060005260406000206000915054906101000a900460ff1681565b806003600084815260200190815260200160002090805190602001906110759291906115b4565b505050565b60008060016000858152602001908152602001600020600b0154905060606110a1826111bb565b90506000846040516020018082805190602001908083835b6020831015156110de57805182526020820191506020810190506020830392506110b9565b6001836020036101000a0380198251168184511680821785525050505050509050019150506040516020818303038152906040528051906020012090508083141561116e577f885b97ff4bea6a536188c132dbad34908f9e70d969ec9c21f6ecf0ed98e21dff8382604051808381526020018281526020019250505060405180910390a1600193505050506111b5565b7f6a34cb162de4293b89a30f1551065addf2a5d3e3ada9fcd639b815d506653a398382604051808381526020018281526020019250505060405180910390a1600093505050505b92915050565b60608060206040519080825280601f01601f1916602001820160405280156111f25781602001600182028038833980820191505090505b50905060005b602081101561127d57838160208110151561120f57fe5b1a7f010000000000000000000000000000000000000000000000000000000000000002828281518110151561124057fe5b9060200101907effffffffffffffffffffffffffffffffffffffffffffffffffffffffffffff1916908160001a90535080806001019150506111f8565b5080915050919050565b600260008154809291906001019190505550600033905060608986846040516020018084805190602001908083835b6020831015156112db57805182526020820191506020810190506020830392506112b6565b6001836020036101000a03801982511681845116808217855250505050505090500183805190602001908083835b60208310151561132e5780518252602082019150602081019050602083039250611309565b6001836020036101000a03801982511681845116808217855250505050505090500182805190602001908083835b602083101515611381578051825260208201915060208101905060208303925061135c565b6001836020036101000a038019825116818451168082178552505050505050905001935050505060405160208183030381529060405290506000816040516020018082805190602001908083835b6020831015156113f457805182526020820191506020810190506020830392506113cf565b6001836020036101000a0380198251168184511680821785525050505050509050019150506040516020818303038152906040528051906020012090506101806040519081016040528060025481526020018c8152602001600081526020018b81526020018a81526020018981526020018881526020018781526020018681526020018581526020018473ffffffffffffffffffffffffffffffffffffffff168152602001828152506001600060025481526020019081526020016000206000820151816000015560208201518160010190805190602001906114d8929190611634565b5060408201518160020155606082015181600301556080820151816004015560a0820151816005015560c082015181600601908051906020019061151d929190611634565b5060e082015181600701556101008201518160080155610120820151816009019080519060200190611550929190611634565b5061014082015181600a0160006101000a81548173ffffffffffffffffffffffffffffffffffffffff021916908373ffffffffffffffffffffffffffffffffffffffff16021790555061016082015181600b01559050505050505050505050505050565b828054600181600116156101000203166002900490600052602060002090601f016020900481019282601f106115f557805160ff1916838001178555611623565b82800160010185558215611623579182015b82811115611622578251825591602001919060010190611607565b5b50905061163091906116b4565b5090565b828054600181600116156101000203166002900490600052602060002090601f016020900481019282601f1061167557805160ff19168380011785556116a3565b828001600101855582156116a3579182015b828111156116a2578251825591602001919060010190611687565b5b5090506116b091906116b4565b5090565b6116d691905b808211156116d25760008160009055506001016116ba565b5090565b9056fea165627a7a723058209611079b0645262a99ec782fd96bfff0304004d0835f6c362f1aa290a66536320029",
  "source": "pragma solidity ^0.5.0;\n\ncontract Property {\n    // Model a Candidate\n    struct Candidate {\n        uint id;\n        string name;\n        uint voteCount;\n        uint licenseNumber;\n        uint registrationNumber;\n        uint size;\n        string location;\n        uint rooms;\n        uint price;\n        string ownerName;\n        address ownerAddress;\n        bytes32 storeHash;\n    }\n\n    // Store accounts that have voted\n    mapping(address => bool) public voters;\n    // Store Candidates\n    // Fetch Candidate\n    mapping(uint => Candidate) public candidates;\n    // Store Candidates Count\n    uint public candidatesCount;\n\n    // voted event\n    event votedEvent (\n        uint indexed _candidateId\n    );\n\n    event verifiedEvent (\n        bytes32 hashEvent, bytes32 hashEvent2\n    );\n\n    event notVerifiedEvent (\n      bytes32 hashEvent, bytes32 hashEvent2\n    );\n\n    constructor () public {\n        addCandidate(\"House A\", 1234, 1111, 120, \"NED\", 4, 250, \"Ali\");\n        addCandidate(\"House B\", 2541, 2222, 240, \"Johar\", 6, 750, \"Furqan\");\n        addCandidate(\"House C\", 1234, 1111, 120, \"NED\", 4, 250, \"Ali\");\n        addCandidate(\"House D\", 2541, 2222, 240, \"Johar\", 6, 750, \"Furqan\");\n    }\n\n    function addCandidate (string memory _name, uint _licenseNumber, uint _registrationNumber, uint _size, string memory _location, uint _rooms, uint _price, string memory _ownerName) public {\n        candidatesCount ++;\n        address senderAddress = msg.sender;\n        string memory sin = string(abi.encodePacked(_name,_location,_ownerName));\n      // string memory sin = string(abi.encodePacked(candidatesCount, _name, _licenseNumber, _registrationNumber, _size, _location, _rooms, _price, _ownerName, senderAddress));\n        bytes32 tempHash = keccak256(abi.encodePacked(sin));\n        candidates[candidatesCount] = Candidate(candidatesCount, _name, 0, _licenseNumber, _registrationNumber, _size, _location, _rooms, _price, _ownerName, senderAddress, tempHash);\n    }\n\n    function editCandidate (uint _id, string memory _ownerName, address _ownerAddress) public {\n        candidates[_id].ownerName = _ownerName;\n        candidates[_id].ownerAddress = _ownerAddress;\n        string memory sinedit = string(abi.encodePacked(candidates[_id].name, candidates[_id].location, _ownerName));\n        bytes32 tempHash = keccak256(abi.encodePacked(sinedit));\n        //bytes32 tempHash = keccak256(abi.encodePacked(_id, candidates[_id].name, candidates[_id].licenseNumber, candidates[_id].registrationNumber, candidates[_id].size, candidates[_id].location, candidates[_id].rooms, candidates[_id].price, _ownerName, _ownerAddress));\n        candidates[_id].storeHash = tempHash;\n        }\n\n    function vote (uint _candidateId) public {\n        // require that they haven't voted before\n        require(!voters[msg.sender]);\n\n        // require a valid candidate\n        require(_candidateId > 0 && _candidateId <= candidatesCount);\n\n        // record that voter has voted\n        voters[msg.sender] = true;\n\n        // update candidate vote Count\n        candidates[_candidateId].voteCount ++;\n\n        // trigger voted event\n        emit votedEvent(_candidateId);\n    }\n\n    mapping(uint => string) documents;\n\n\n    function storeDocument(uint id, string memory docHash) public {\n\n        documents[id] = docHash;\n    }\n\n    function bytes32ToStr(bytes32 _bytes32) public view returns (string memory){\n\n    // string memory str = string(_bytes32);\n    // TypeError: Explicit type conversion not allowed from \"bytes32\" to \"string storage pointer\"\n    // thus we should fist convert bytes32 to bytes (to dynamically-sized byte array)\n\n    bytes memory bytesArray = new bytes(32);\n    for (uint256 i; i < 32; i++) {\n        bytesArray[i] = _bytes32[i];\n        }\n    return string(bytesArray);\n    }\n\n    function verifyDocument(uint id, string memory hashToVerify) public returns (bool){\n      bytes32 baseHash = candidates[id].storeHash;\n      string memory converted = bytes32ToStr(baseHash);\n      bytes32 newHash = keccak256(abi.encodePacked(hashToVerify));\n          if( baseHash == newHash) {\n            emit verifiedEvent(baseHash,newHash);\n            return true;\n        }\n        else{\n            emit notVerifiedEvent(baseHash,newHash);\n            return false;\n        }\n     }\n\n     function hashSeriesNumber(string memory sampleToHash) public pure returns (bytes32)\n     {\n    return  keccak256(abi.encodePacked(sampleToHash));\n      }\n\n}\n",
  "sourcePath": "C:/Users/HP/Desktop/FYP/RealEstate/Ethereum Blockchain/realestate/contracts/Property.sol",
  "compiler": {
    "name": "solc",
    "version": "0.5.0+commit.1d4f565a.Emscripten.clang"
  },
  "schemaVersion": "3.0.2",
  "updatedAt": "2019-04-06T17:12:02.619Z",
  "devdoc": {
    "methods": {}
  },
  "userdoc": {
    "methods": {}
  }
}