{
  "contractName": "StringUtils",
  "abi": [
    {
      "constant": false,
      "inputs": [
        {
          "name": "_a",
          "type": "string"
        },
        {
          "name": "_b",
          "type": "string"
        }
      ],
      "name": "compare",
      "outputs": [
        {
          "name": "",
          "type": "int256"
        }
      ],
      "payable": false,
      "stateMutability": "nonpayable",
      "type": "function"
    },
    {
      "constant": false,
      "inputs": [
        {
          "name": "_a",
          "type": "string"
        },
        {
          "name": "_b",
          "type": "string"
        }
      ],
      "name": "equal",
      "outputs": [
        {
          "name": "",
          "type": "bool"
        }
      ],
      "payable": false,
      "stateMutability": "nonpayable",
      "type": "function"
    },
    {
      "constant": false,
      "inputs": [
        {
          "name": "_haystack",
          "type": "string"
        },
        {
          "name": "_needle",
          "type": "string"
        }
      ],
      "name": "indexOf",
      "outputs": [
        {
          "name": "",
          "type": "int256"
        }
      ],
      "payable": false,
      "stateMutability": "nonpayable",
      "type": "function"
    }
  ],
  "bytecode": "0x610aff610030600b82828239805160001a6073146000811461002057610022565bfe5b5030600052607381538281f3fe730000000000000000000000000000000000000000301460806040526004361061006e576000357c0100000000000000000000000000000000000000000000000000000000900463ffffffff1680633a96fdd71461007357806346bdca9a146101e65780638a0807b71461035d575b600080fd5b81801561007f57600080fd5b506101d06004803603604081101561009657600080fd5b81019080803590602001906401000000008111156100b357600080fd5b8201836020820111156100c557600080fd5b803590602001918460018302840111640100000000831117156100e757600080fd5b91908080601f016020809104026020016040519081016040528093929190818152602001838380828437600081840152601f19601f8201169050808301925050505050505091929192908035906020019064010000000081111561014a57600080fd5b82018360208201111561015c57600080fd5b8035906020019184600183028401116401000000008311171561017e57600080fd5b91908080601f016020809104026020016040519081016040528093929190818152602001838380828437600081840152601f19601f8201169050808301925050505050505091929192905050506104d0565b6040518082815260200191505060405180910390f35b8180156101f257600080fd5b506103436004803603604081101561020957600080fd5b810190808035906020019064010000000081111561022657600080fd5b82018360208201111561023857600080fd5b8035906020019184600183028401116401000000008311171561025a57600080fd5b91908080601f016020809104026020016040519081016040528093929190818152602001838380828437600081840152601f19601f820116905080830192505050505050509192919290803590602001906401000000008111156102bd57600080fd5b8201836020820111156102cf57600080fd5b803590602001918460018302840111640100000000831117156102f157600080fd5b91908080601f016020809104026020016040519081016040528093929190818152602001838380828437600081840152601f19601f820116905080830192505050505050509192919290505050610796565b604051808215151515815260200191505060405180910390f35b81801561036957600080fd5b506104ba6004803603604081101561038057600080fd5b810190808035906020019064010000000081111561039d57600080fd5b8201836020820111156103af57600080fd5b803590602001918460018302840111640100000000831117156103d157600080fd5b91908080601f016020809104026020016040519081016040528093929190818152602001838380828437600081840152601f19601f8201169050808301925050505050505091929192908035906020019064010000000081111561043457600080fd5b82018360208201111561044657600080fd5b8035906020019184600183028401116401000000008311171561046857600080fd5b91908080601f016020809104026020016040519081016040528093929190818152602001838380828437600081840152601f19601f8201169050808301925050505050505091929192905050506107ac565b6040518082815260200191505060405180910390f35b60006060839050606083905060008251905080825110156104f057815190505b60008090505b8181101561073c57828181518110151561050c57fe5b9060200101517f010000000000000000000000000000000000000000000000000000000000000090047f0100000000000000000000000000000000000000000000000000000000000000027effffffffffffffffffffffffffffffffffffffffffffffffffffffffffffff1916848281518110151561058757fe5b9060200101517f010000000000000000000000000000000000000000000000000000000000000090047f0100000000000000000000000000000000000000000000000000000000000000027effffffffffffffffffffffffffffffffffffffffffffffffffffffffffffff19161015610626577fffffffffffffffffffffffffffffffffffffffffffffffffffffffffffffffff945050505050610790565b828181518110151561063457fe5b9060200101517f010000000000000000000000000000000000000000000000000000000000000090047f0100000000000000000000000000000000000000000000000000000000000000027effffffffffffffffffffffffffffffffffffffffffffffffffffffffffffff191684828151811015156106af57fe5b9060200101517f010000000000000000000000000000000000000000000000000000000000000090047f0100000000000000000000000000000000000000000000000000000000000000027effffffffffffffffffffffffffffffffffffffffffffffffffffffffffffff1916111561072f576001945050505050610790565b80806001019150506104f6565b50815183511015610772577fffffffffffffffffffffffffffffffffffffffffffffffffffffffffffffffff9350505050610790565b8151835111156107885760019350505050610790565b600093505050505b92915050565b6000806107a384846104d0565b14905092915050565b6000606083905060608390506001825110806107c9575060018151105b806107d5575081518151115b15610804577fffffffffffffffffffffffffffffffffffffffffffffffffffffffffffffffff92505050610acd565b6fffffffffffffffffffffffffffffffff82511115610847577fffffffffffffffffffffffffffffffffffffffffffffffffffffffffffffffff92505050610acd565b600080905060008090505b8351811015610aa55782600081518110151561086a57fe5b9060200101517f010000000000000000000000000000000000000000000000000000000000000090047f0100000000000000000000000000000000000000000000000000000000000000027effffffffffffffffffffffffffffffffffffffffffffffffffffffffffffff191684828151811015156108e557fe5b9060200101517f010000000000000000000000000000000000000000000000000000000000000090047f0100000000000000000000000000000000000000000000000000000000000000027effffffffffffffffffffffffffffffffffffffffffffffffffffffffffffff19161415610a9857600191505b82518210801561096f57508351828201105b8015610a705750828281518110151561098457fe5b9060200101517f010000000000000000000000000000000000000000000000000000000000000090047f0100000000000000000000000000000000000000000000000000000000000000027effffffffffffffffffffffffffffffffffffffffffffffffffffffffffffff191684838301815181101515610a0157fe5b9060200101517f010000000000000000000000000000000000000000000000000000000000000090047f0100000000000000000000000000000000000000000000000000000000000000027effffffffffffffffffffffffffffffffffffffffffffffffffffffffffffff1916145b15610a8257818060010192505061095d565b8251821415610a975780945050505050610acd565b5b8080600101915050610852565b507fffffffffffffffffffffffffffffffffffffffffffffffffffffffffffffffff93505050505b9291505056fea165627a7a72305820529b8f6a4ea57fd47afd11d4203d33f9e5a76bb0073c787c4031679c914f13310029",
  "source": "pragma solidity ^0.5.0;\n\nlibrary StringUtils {\n    /// @dev Does a byte-by-byte lexicographical comparison of two strings.\n    /// @return a negative number if `_a` is smaller, zero if they are equal\n    /// and a positive numbe if `_b` is smaller.\n    function compare(string memory _a, string memory _b) public returns (int) {\n        bytes memory a = bytes(_a);\n        bytes memory b = bytes(_b);\n        uint minLength = a.length;\n        if (b.length < minLength) minLength = b.length;\n        //@todo unroll the loop into increments of 32 and do full 32 byte comparisons\n        for (uint i = 0; i < minLength; i ++)\n            if (a[i] < b[i])\n                return -1;\n            else if (a[i] > b[i])\n                return 1;\n        if (a.length < b.length)\n            return -1;\n        else if (a.length > b.length)\n            return 1;\n        else\n            return 0;\n    }\n    /// @dev Compares two strings and returns true iff they are equal.\n    function equal(string memory _a, string memory _b) public returns (bool) {\n        return compare(_a, _b) == 0;\n    }\n    /// @dev Finds the index of the first occurrence of _needle in _haystack\n    function indexOf(string memory _haystack, string memory _needle) public returns (int)\n    {\n    \tbytes memory h = bytes(_haystack);\n    \tbytes memory n = bytes(_needle);\n    \tif(h.length < 1 || n.length < 1 || (n.length > h.length))\n    \t\treturn -1;\n    \telse if(h.length > (2**128 -1)) // since we have to be able to return -1 (if the char isn't found or input error), this function must return an \"int\" type with a max length of (2^128 - 1)\n    \t\treturn -1;\n    \telse\n    \t{\n    \t\tuint subindex = 0;\n    \t\tfor (uint i = 0; i < h.length; i ++)\n    \t\t{\n    \t\t\tif (h[i] == n[0]) // found the first char of b\n    \t\t\t{\n    \t\t\t\tsubindex = 1;\n    \t\t\t\twhile(subindex < n.length && (i + subindex) < h.length && h[i + subindex] == n[subindex]) // search until the chars don't match or until we reach the end of a or b\n    \t\t\t\t{\n    \t\t\t\t\tsubindex++;\n    \t\t\t\t}\n    \t\t\t\tif(subindex == n.length)\n    \t\t\t\t\treturn int(i);\n    \t\t\t}\n    \t\t}\n    \t\treturn -1;\n    \t}\n    }\n}\n\ncontract Property {\n    // Model a Candidate\n    struct Candidate {\n        uint id;\n        string name;\n        uint voteCount;\n        uint licenseNumber;\n        uint registrationNumber;\n        uint size;\n        string location;\n        uint rooms;\n        uint price;\n        string ownerName;\n        address ownerAddress;\n    }\n\n    // Store accounts that have voted\n    mapping(address => bool) public voters;\n    // Store Candidates\n    // Fetch Candidate\n    mapping(uint => Candidate) public candidates;\n    // Store Candidates Count\n    uint public candidatesCount;\n\n    // voted event\n    event votedEvent (\n        uint indexed _candidateId\n    );\n\n    constructor () public {\n        addCandidate(\"House A\", 1234, 1111, 120, \"NED\", 4, 250, \"Ali\");\n        addCandidate(\"House B\", 2541, 2222, 240, \"Johar\", 6, 750, \"Furqan\");\n        addCandidate(\"House C\", 1234, 1111, 120, \"NED\", 4, 250, \"Ali\");\n        addCandidate(\"House D\", 2541, 2222, 240, \"Johar\", 6, 750, \"Furqan\");\n    }\n\n    function addCandidate (string memory _name, uint _licenseNumber, uint _registrationNumber, uint _size, string memory _location, uint _rooms, uint _price, string memory _ownerName) public {\n        candidatesCount ++;\n        address senderAddress = msg.sender;\n        candidates[candidatesCount] = Candidate(candidatesCount, _name, 0, _licenseNumber, _registrationNumber, _size, _location, _rooms, _price, _ownerName, senderAddress);\n    }\n\n    function vote (uint _candidateId) public {\n        // require that they haven't voted before\n        require(!voters[msg.sender]);\n\n        // require a valid candidate\n        require(_candidateId > 0 && _candidateId <= candidatesCount);\n\n        // record that voter has voted\n        voters[msg.sender] = true;\n\n        // update candidate vote Count\n        candidates[_candidateId].voteCount ++;\n\n        // trigger voted event\n        emit votedEvent(_candidateId);\n    }\n\n    mapping(uint => string) documents;\n\n\n    function storeDocument(uint id, string memory docHash) public {\n\n        documents[id] = docHash;\n    }\n\n    function verifyDocument(uint id, string memory hashToVerify) public returns (bool){\n        if(StringUtils.equal(documents[id],hashToVerify)) {\n            return true;\n        }\n        else{\n            return false;\n        }\n     }\n\n}\n",
  "sourcePath": "C:/Users/HP/Desktop/FYP/RealEstate/Ethereum Blockchain/realestate/contracts/Property.sol",
  "compiler": {
    "name": "solc",
    "version": "0.5.0+commit.1d4f565a.Emscripten.clang"
  },
  "schemaVersion": "3.0.2",
  "updatedAt": "2019-03-06T18:54:19.504Z",
  "devdoc": {
    "methods": {
      "compare(string,string)": {
        "details": "Does a byte-by-byte lexicographical comparison of two strings.",
        "return": "a negative number if `_a` is smaller, zero if they are equal and a positive numbe if `_b` is smaller."
      },
      "equal(string,string)": {
        "details": "Compares two strings and returns true iff they are equal."
      },
      "indexOf(string,string)": {
        "details": "Finds the index of the first occurrence of _needle in _haystack"
      }
    }
  },
  "userdoc": {
    "methods": {}
  }
}